{
  "contractName": "ParentContract",
  "abi": [
    {
      "inputs": [],
      "stateMutability": "nonpayable",
      "type": "constructor"
    },
    {
      "inputs": [
        {
          "internalType": "address",
          "name": "",
          "type": "address"
        },
        {
          "internalType": "uint256",
          "name": "",
          "type": "uint256"
        }
      ],
      "name": "tokens",
      "outputs": [
        {
          "internalType": "address",
          "name": "",
          "type": "address"
        }
      ],
      "stateMutability": "view",
      "type": "function",
      "constant": true
    },
    {
      "inputs": [
        {
          "internalType": "string",
          "name": "name",
          "type": "string"
        },
        {
          "internalType": "string",
          "name": "symbol",
          "type": "string"
        },
        {
          "internalType": "uint256",
          "name": "initialSupply",
          "type": "uint256"
        },
        {
          "internalType": "uint8",
          "name": "decimals",
          "type": "uint8"
        }
      ],
      "name": "createToken",
      "outputs": [],
      "stateMutability": "nonpayable",
      "type": "function"
    },
    {
      "inputs": [
        {
          "internalType": "address",
          "name": "user",
          "type": "address"
        }
      ],
      "name": "getTokens",
      "outputs": [
        {
          "internalType": "address[]",
          "name": "",
          "type": "address[]"
        }
      ],
      "stateMutability": "view",
      "type": "function",
      "constant": true
    }
  ],
  "bytecode": "0x608060405234801561001057600080fd5b50612549806100206000396000f3fe60806040523480156200001157600080fd5b5060043610620000465760003560e01c8063450efe21146200004b5780634abf825d1462000081578063b64acddd14620000b7575b600080fd5b62000069600480360381019062000063919062000366565b620000d7565b60405162000078919062000466565b60405180910390f35b6200009f6004803603810190620000999190620004c5565b620001a5565b604051620000ae91906200051d565b60405180910390f35b620000d56004803603810190620000cf9190620006da565b620001f4565b005b60606000808373ffffffffffffffffffffffffffffffffffffffff1673ffffffffffffffffffffffffffffffffffffffff1681526020019081526020016000208054806020026020016040519081016040528092919081815260200182805480156200019957602002820191906000526020600020905b8160009054906101000a900473ffffffffffffffffffffffffffffffffffffffff1673ffffffffffffffffffffffffffffffffffffffff16815260200190600101908083116200014e575b50505050509050919050565b60006020528160005260406000208181548110620001c257600080fd5b906000526020600020016000915091509054906101000a900473ffffffffffffffffffffffffffffffffffffffff1681565b600084848484336040516200020990620002df565b620002199594939291906200083f565b604051809103906000f08015801562000236573d6000803e3d6000fd5b5090506000803373ffffffffffffffffffffffffffffffffffffffff1673ffffffffffffffffffffffffffffffffffffffff168152602001908152602001600020819080600181540180825580915050600190039060005260206000200160009091909190916101000a81548173ffffffffffffffffffffffffffffffffffffffff021916908373ffffffffffffffffffffffffffffffffffffffff1602179055505050505050565b611c6980620008ab83390190565b6000604051905090565b600080fd5b600080fd5b600073ffffffffffffffffffffffffffffffffffffffff82169050919050565b60006200032e8262000301565b9050919050565b620003408162000321565b81146200034c57600080fd5b50565b600081359050620003608162000335565b92915050565b6000602082840312156200037f576200037e620002f7565b5b60006200038f848285016200034f565b91505092915050565b600081519050919050565b600082825260208201905092915050565b6000819050602082019050919050565b620003cf8162000321565b82525050565b6000620003e38383620003c4565b60208301905092915050565b6000602082019050919050565b6000620004098262000398565b620004158185620003a3565b93506200042283620003b4565b8060005b83811015620004595781516200043d8882620003d5565b97506200044a83620003ef565b92505060018101905062000426565b5085935050505092915050565b60006020820190508181036000830152620004828184620003fc565b905092915050565b6000819050919050565b6200049f816200048a565b8114620004ab57600080fd5b50565b600081359050620004bf8162000494565b92915050565b60008060408385031215620004df57620004de620002f7565b5b6000620004ef858286016200034f565b92505060206200050285828601620004ae565b9150509250929050565b620005178162000321565b82525050565b60006020820190506200053460008301846200050c565b92915050565b600080fd5b600080fd5b6000601f19601f8301169050919050565b7f4e487b7100000000000000000000000000000000000000000000000000000000600052604160045260246000fd5b6200058f8262000544565b810181811067ffffffffffffffff82111715620005b157620005b062000555565b5b80604052505050565b6000620005c6620002ed565b9050620005d4828262000584565b919050565b600067ffffffffffffffff821115620005f757620005f662000555565b5b620006028262000544565b9050602081019050919050565b82818337600083830152505050565b6000620006356200062f84620005d9565b620005ba565b9050828152602081018484840111156200065457620006536200053f565b5b620006618482856200060f565b509392505050565b600082601f8301126200068157620006806200053a565b5b8135620006938482602086016200061e565b91505092915050565b600060ff82169050919050565b620006b4816200069c565b8114620006c057600080fd5b50565b600081359050620006d481620006a9565b92915050565b60008060008060808587031215620006f757620006f6620002f7565b5b600085013567ffffffffffffffff811115620007185762000717620002fc565b5b620007268782880162000669565b945050602085013567ffffffffffffffff8111156200074a5762000749620002fc565b5b620007588782880162000669565b93505060406200076b87828801620004ae565b92505060606200077e87828801620006c3565b91505092959194509250565b600081519050919050565b600082825260208201905092915050565b60005b83811015620007c6578082015181840152602081019050620007a9565b83811115620007d6576000848401525b50505050565b6000620007e9826200078a565b620007f5818562000795565b935062000807818560208601620007a6565b620008128162000544565b840191505092915050565b62000828816200048a565b82525050565b62000839816200069c565b82525050565b600060a08201905081810360008301526200085b8188620007dc565b90508181036020830152620008718187620007dc565b90506200088260408301866200081d565b6200089160608301856200082e565b620008a060808301846200050c565b969550505050505056fe60806040526012600560006101000a81548160ff021916908360ff1602179055503480156200002d57600080fd5b5060405162001c6938038062001c69833981810160405281019062000053919062000589565b848481600390805190602001906200006d9291906200025e565b508060049080519060200190620000869291906200025e565b505050620000b68183600a6200009d9190620007d2565b85620000aa919062000823565b620000dc60201b60201c565b81600560006101000a81548160ff021916908360ff1602179055505050505050620009f6565b600073ffffffffffffffffffffffffffffffffffffffff168273ffffffffffffffffffffffffffffffffffffffff16036200014e576040517f08c379a00000000000000000000000000000000000000000000000000000000081526004016200014590620008e5565b60405180910390fd5b62000162600083836200025460201b60201c565b806002600082825462000176919062000907565b92505081905550806000808473ffffffffffffffffffffffffffffffffffffffff1673ffffffffffffffffffffffffffffffffffffffff1681526020019081526020016000206000828254620001cd919062000907565b925050819055508173ffffffffffffffffffffffffffffffffffffffff16600073ffffffffffffffffffffffffffffffffffffffff167fddf252ad1be2c89b69c2b068fc378daa952ba7f163c4a11628f55a4df523b3ef8360405162000234919062000975565b60405180910390a362000250600083836200025960201b60201c565b5050565b505050565b505050565b8280546200026c90620009c1565b90600052602060002090601f016020900481019282620002905760008555620002dc565b82601f10620002ab57805160ff1916838001178555620002dc565b82800160010185558215620002dc579182015b82811115620002db578251825591602001919060010190620002be565b5b509050620002eb9190620002ef565b5090565b5b808211156200030a576000816000905550600101620002f0565b5090565b6000604051905090565b600080fd5b600080fd5b600080fd5b600080fd5b6000601f19601f8301169050919050565b7f4e487b7100000000000000000000000000000000000000000000000000000000600052604160045260246000fd5b62000377826200032c565b810181811067ffffffffffffffff821117156200039957620003986200033d565b5b80604052505050565b6000620003ae6200030e565b9050620003bc82826200036c565b919050565b600067ffffffffffffffff821115620003df57620003de6200033d565b5b620003ea826200032c565b9050602081019050919050565b60005b8381101562000417578082015181840152602081019050620003fa565b8381111562000427576000848401525b50505050565b6000620004446200043e84620003c1565b620003a2565b90508281526020810184848401111562000463576200046262000327565b5b62000470848285620003f7565b509392505050565b600082601f83011262000490576200048f62000322565b5b8151620004a28482602086016200042d565b91505092915050565b6000819050919050565b620004c081620004ab565b8114620004cc57600080fd5b50565b600081519050620004e081620004b5565b92915050565b600060ff82169050919050565b620004fe81620004e6565b81146200050a57600080fd5b50565b6000815190506200051e81620004f3565b92915050565b600073ffffffffffffffffffffffffffffffffffffffff82169050919050565b6000620005518262000524565b9050919050565b620005638162000544565b81146200056f57600080fd5b50565b600081519050620005838162000558565b92915050565b600080600080600060a08688031215620005a857620005a762000318565b5b600086015167ffffffffffffffff811115620005c957620005c86200031d565b5b620005d78882890162000478565b955050602086015167ffffffffffffffff811115620005fb57620005fa6200031d565b5b620006098882890162000478565b94505060406200061c88828901620004cf565b93505060606200062f888289016200050d565b9250506080620006428882890162000572565b9150509295509295909350565b7f4e487b7100000000000000000000000000000000000000000000000000000000600052601160045260246000fd5b60008160011c9050919050565b6000808291508390505b6001851115620006dd57808604811115620006b557620006b46200064f565b5b6001851615620006c55780820291505b8081029050620006d5856200067e565b945062000695565b94509492505050565b600082620006f85760019050620007cb565b81620007085760009050620007cb565b81600181146200072157600281146200072c5762000762565b6001915050620007cb565b60ff8411156200074157620007406200064f565b5b8360020a9150848211156200075b576200075a6200064f565b5b50620007cb565b5060208310610133831016604e8410600b84101617156200079c5782820a9050838111156200079657620007956200064f565b5b620007cb565b620007ab84848460016200068b565b92509050818404811115620007c557620007c46200064f565b5b81810290505b9392505050565b6000620007df82620004ab565b9150620007ec83620004e6565b92506200081b7fffffffffffffffffffffffffffffffffffffffffffffffffffffffffffffffff8484620006e6565b905092915050565b60006200083082620004ab565b91506200083d83620004ab565b9250817fffffffffffffffffffffffffffffffffffffffffffffffffffffffffffffffff04831182151516156200087957620008786200064f565b5b828202905092915050565b600082825260208201905092915050565b7f45524332303a206d696e7420746f20746865207a65726f206164647265737300600082015250565b6000620008cd601f8362000884565b9150620008da8262000895565b602082019050919050565b600060208201905081810360008301526200090081620008be565b9050919050565b60006200091482620004ab565b91506200092183620004ab565b9250827fffffffffffffffffffffffffffffffffffffffffffffffffffffffffffffffff038211156200095957620009586200064f565b5b828201905092915050565b6200096f81620004ab565b82525050565b60006020820190506200098c600083018462000964565b92915050565b7f4e487b7100000000000000000000000000000000000000000000000000000000600052602260045260246000fd5b60006002820490506001821680620009da57607f821691505b602082108103620009f057620009ef62000992565b5b50919050565b6112638062000a066000396000f3fe608060405234801561001057600080fd5b50600436106100a95760003560e01c80633950935111610071578063395093511461016857806370a082311461019857806395d89b41146101c8578063a457c2d7146101e6578063a9059cbb14610216578063dd62ed3e14610246576100a9565b806306fdde03146100ae578063095ea7b3146100cc57806318160ddd146100fc57806323b872dd1461011a578063313ce5671461014a575b600080fd5b6100b6610276565b6040516100c39190610b1e565b60405180910390f35b6100e660048036038101906100e19190610bd9565b610308565b6040516100f39190610c34565b60405180910390f35b61010461032b565b6040516101119190610c5e565b60405180910390f35b610134600480360381019061012f9190610c79565b610335565b6040516101419190610c34565b60405180910390f35b610152610364565b60405161015f9190610ce8565b60405180910390f35b610182600480360381019061017d9190610bd9565b61036d565b60405161018f9190610c34565b60405180910390f35b6101b260048036038101906101ad9190610d03565b6103a4565b6040516101bf9190610c5e565b60405180910390f35b6101d06103ec565b6040516101dd9190610b1e565b60405180910390f35b61020060048036038101906101fb9190610bd9565b61047e565b60405161020d9190610c34565b60405180910390f35b610230600480360381019061022b9190610bd9565b6104f5565b60405161023d9190610c34565b60405180910390f35b610260600480360381019061025b9190610d30565b610518565b60405161026d9190610c5e565b60405180910390f35b60606003805461028590610d9f565b80601f01602080910402602001604051908101604052809291908181526020018280546102b190610d9f565b80156102fe5780601f106102d3576101008083540402835291602001916102fe565b820191906000526020600020905b8154815290600101906020018083116102e157829003601f168201915b5050505050905090565b60008061031361059f565b90506103208185856105a7565b600191505092915050565b6000600254905090565b60008061034061059f565b905061034d858285610770565b6103588585856107fc565b60019150509392505050565b60006012905090565b60008061037861059f565b905061039981858561038a8589610518565b6103949190610dff565b6105a7565b600191505092915050565b60008060008373ffffffffffffffffffffffffffffffffffffffff1673ffffffffffffffffffffffffffffffffffffffff168152602001908152602001600020549050919050565b6060600480546103fb90610d9f565b80601f016020809104026020016040519081016040528092919081815260200182805461042790610d9f565b80156104745780601f1061044957610100808354040283529160200191610474565b820191906000526020600020905b81548152906001019060200180831161045757829003601f168201915b5050505050905090565b60008061048961059f565b905060006104978286610518565b9050838110156104dc576040517f08c379a00000000000000000000000000000000000000000000000000000000081526004016104d390610ec7565b60405180910390fd5b6104e982868684036105a7565b60019250505092915050565b60008061050061059f565b905061050d8185856107fc565b600191505092915050565b6000600160008473ffffffffffffffffffffffffffffffffffffffff1673ffffffffffffffffffffffffffffffffffffffff16815260200190815260200160002060008373ffffffffffffffffffffffffffffffffffffffff1673ffffffffffffffffffffffffffffffffffffffff16815260200190815260200160002054905092915050565b600033905090565b600073ffffffffffffffffffffffffffffffffffffffff168373ffffffffffffffffffffffffffffffffffffffff1603610616576040517f08c379a000000000000000000000000000000000000000000000000000000000815260040161060d90610f59565b60405180910390fd5b600073ffffffffffffffffffffffffffffffffffffffff168273ffffffffffffffffffffffffffffffffffffffff1603610685576040517f08c379a000000000000000000000000000000000000000000000000000000000815260040161067c90610feb565b60405180910390fd5b80600160008573ffffffffffffffffffffffffffffffffffffffff1673ffffffffffffffffffffffffffffffffffffffff16815260200190815260200160002060008473ffffffffffffffffffffffffffffffffffffffff1673ffffffffffffffffffffffffffffffffffffffff168152602001908152602001600020819055508173ffffffffffffffffffffffffffffffffffffffff168373ffffffffffffffffffffffffffffffffffffffff167f8c5be1e5ebec7d5bd14f71427d1e84f3dd0314c0f7b2291e5b200ac8c7c3b925836040516107639190610c5e565b60405180910390a3505050565b600061077c8484610518565b90507fffffffffffffffffffffffffffffffffffffffffffffffffffffffffffffffff81146107f657818110156107e8576040517f08c379a00000000000000000000000000000000000000000000000000000000081526004016107df90611057565b60405180910390fd5b6107f584848484036105a7565b5b50505050565b600073ffffffffffffffffffffffffffffffffffffffff168373ffffffffffffffffffffffffffffffffffffffff160361086b576040517f08c379a0000000000000000000000000000000000000000000000000000000008152600401610862906110e9565b60405180910390fd5b600073ffffffffffffffffffffffffffffffffffffffff168273ffffffffffffffffffffffffffffffffffffffff16036108da576040517f08c379a00000000000000000000000000000000000000000000000000000000081526004016108d19061117b565b60405180910390fd5b6108e5838383610a7b565b60008060008573ffffffffffffffffffffffffffffffffffffffff1673ffffffffffffffffffffffffffffffffffffffff1681526020019081526020016000205490508181101561096b576040517f08c379a00000000000000000000000000000000000000000000000000000000081526004016109629061120d565b60405180910390fd5b8181036000808673ffffffffffffffffffffffffffffffffffffffff1673ffffffffffffffffffffffffffffffffffffffff16815260200190815260200160002081905550816000808573ffffffffffffffffffffffffffffffffffffffff1673ffffffffffffffffffffffffffffffffffffffff16815260200190815260200160002060008282546109fe9190610dff565b925050819055508273ffffffffffffffffffffffffffffffffffffffff168473ffffffffffffffffffffffffffffffffffffffff167fddf252ad1be2c89b69c2b068fc378daa952ba7f163c4a11628f55a4df523b3ef84604051610a629190610c5e565b60405180910390a3610a75848484610a80565b50505050565b505050565b505050565b600081519050919050565b600082825260208201905092915050565b60005b83811015610abf578082015181840152602081019050610aa4565b83811115610ace576000848401525b50505050565b6000601f19601f8301169050919050565b6000610af082610a85565b610afa8185610a90565b9350610b0a818560208601610aa1565b610b1381610ad4565b840191505092915050565b60006020820190508181036000830152610b388184610ae5565b905092915050565b600080fd5b600073ffffffffffffffffffffffffffffffffffffffff82169050919050565b6000610b7082610b45565b9050919050565b610b8081610b65565b8114610b8b57600080fd5b50565b600081359050610b9d81610b77565b92915050565b6000819050919050565b610bb681610ba3565b8114610bc157600080fd5b50565b600081359050610bd381610bad565b92915050565b60008060408385031215610bf057610bef610b40565b5b6000610bfe85828601610b8e565b9250506020610c0f85828601610bc4565b9150509250929050565b60008115159050919050565b610c2e81610c19565b82525050565b6000602082019050610c496000830184610c25565b92915050565b610c5881610ba3565b82525050565b6000602082019050610c736000830184610c4f565b92915050565b600080600060608486031215610c9257610c91610b40565b5b6000610ca086828701610b8e565b9350506020610cb186828701610b8e565b9250506040610cc286828701610bc4565b9150509250925092565b600060ff82169050919050565b610ce281610ccc565b82525050565b6000602082019050610cfd6000830184610cd9565b92915050565b600060208284031215610d1957610d18610b40565b5b6000610d2784828501610b8e565b91505092915050565b60008060408385031215610d4757610d46610b40565b5b6000610d5585828601610b8e565b9250506020610d6685828601610b8e565b9150509250929050565b7f4e487b7100000000000000000000000000000000000000000000000000000000600052602260045260246000fd5b60006002820490506001821680610db757607f821691505b602082108103610dca57610dc9610d70565b5b50919050565b7f4e487b7100000000000000000000000000000000000000000000000000000000600052601160045260246000fd5b6000610e0a82610ba3565b9150610e1583610ba3565b9250827fffffffffffffffffffffffffffffffffffffffffffffffffffffffffffffffff03821115610e4a57610e49610dd0565b5b828201905092915050565b7f45524332303a2064656372656173656420616c6c6f77616e63652062656c6f7760008201527f207a65726f000000000000000000000000000000000000000000000000000000602082015250565b6000610eb1602583610a90565b9150610ebc82610e55565b604082019050919050565b60006020820190508181036000830152610ee081610ea4565b9050919050565b7f45524332303a20617070726f76652066726f6d20746865207a65726f2061646460008201527f7265737300000000000000000000000000000000000000000000000000000000602082015250565b6000610f43602483610a90565b9150610f4e82610ee7565b604082019050919050565b60006020820190508181036000830152610f7281610f36565b9050919050565b7f45524332303a20617070726f766520746f20746865207a65726f20616464726560008201527f7373000000000000000000000000000000000000000000000000000000000000602082015250565b6000610fd5602283610a90565b9150610fe082610f79565b604082019050919050565b6000602082019050818103600083015261100481610fc8565b9050919050565b7f45524332303a20696e73756666696369656e7420616c6c6f77616e6365000000600082015250565b6000611041601d83610a90565b915061104c8261100b565b602082019050919050565b6000602082019050818103600083015261107081611034565b9050919050565b7f45524332303a207472616e736665722066726f6d20746865207a65726f20616460008201527f6472657373000000000000000000000000000000000000000000000000000000602082015250565b60006110d3602583610a90565b91506110de82611077565b604082019050919050565b60006020820190508181036000830152611102816110c6565b9050919050565b7f45524332303a207472616e7366657220746f20746865207a65726f206164647260008201527f6573730000000000000000000000000000000000000000000000000000000000602082015250565b6000611165602383610a90565b915061117082611109565b604082019050919050565b6000602082019050818103600083015261119481611158565b9050919050565b7f45524332303a207472616e7366657220616d6f756e742065786365656473206260008201527f616c616e63650000000000000000000000000000000000000000000000000000602082015250565b60006111f7602683610a90565b91506112028261119b565b604082019050919050565b60006020820190508181036000830152611226816111ea565b905091905056fea26469706673582212203876d6095c40b7c67bdb1a73d280441c1223d8cae95d458ecf440956f52ed61f64736f6c634300080d0033a264697066735822122063138844d9310bc25bfb537fc5c7af239de2a15b9a1ad6ed02deb5a7c69e8c3a64736f6c634300080d0033",
  "immutableReferences": {},
  "source": "// contracts/MyNFT.sol\n// SPDX-License-Identifier: MIT\npragma solidity ^0.8.0;\n\nimport \"./BasicToken.sol\";\n\ncontract ParentContract {\n    mapping(address => address[]) public tokens;\n\n    constructor() {}\n\n    function createToken(string memory name, string memory symbol, uint256 initialSupply, uint8 decimals) external {\n        BasicToken token = new BasicToken(name, symbol, initialSupply, decimals, msg.sender);\n        tokens[msg.sender].push(address(token));\n    }\n\n    function getTokens(address user) external view returns(address[] memory) {\n        return tokens[user];\n    }\n}",
  "sourcePath": "/Users/roychong/ERC20Deploy/contracts/ParentContract.sol",
  "compiler": {
    "name": "solc",
    "version": "0.8.13+commit.abaa5c0e.Emscripten.clang"
  },
  "schemaVersion": "3.4.7",
  "updatedAt": "2022-05-09T17:59:50.456Z",
  "networkType": "ethereum",
  "devdoc": {
    "kind": "dev",
    "methods": {},
    "version": 1
  },
  "userdoc": {
    "kind": "user",
    "methods": {},
    "version": 1
  }
}